{
  "contractName": "DappToken",
  "abi": [
    {
      "constant": true,
      "inputs": [],
      "name": "totalSupply",
      "outputs": [
        {
          "name": "",
          "type": "uint256"
        }
      ],
      "payable": false,
      "stateMutability": "view",
      "type": "function"
    },
    {
      "constant": true,
      "inputs": [
        {
          "name": "",
          "type": "address"
        }
      ],
      "name": "balanceOf",
      "outputs": [
        {
          "name": "",
          "type": "uint256"
        }
      ],
      "payable": false,
      "stateMutability": "view",
      "type": "function"
    },
    {
      "inputs": [
        {
          "name": "_initialSupply",
          "type": "uint256"
        }
      ],
      "payable": false,
      "stateMutability": "nonpayable",
      "type": "constructor"
    }
  ],
  "bytecode": "0x608060405234801561001057600080fd5b5060405160208061015e8339810180604052810190808051906020019092919050505080600081905550506101148061004a6000396000f3006080604052600436106049576000357c0100000000000000000000000000000000000000000000000000000000900463ffffffff16806318160ddd14604e57806370a08231146076575b600080fd5b348015605957600080fd5b50606060ca565b6040518082815260200191505060405180910390f35b348015608157600080fd5b5060b4600480360381019080803573ffffffffffffffffffffffffffffffffffffffff16906020019092919050505060d0565b6040518082815260200191505060405180910390f35b60005481565b600160205280600052604060002060009150905054815600a165627a7a7230582008ec182fe54d91c8b01c79a764e18aa9b7406fdaacd947d750898c8284a207700029",
  "source": "pragma solidity ^0.4.2;\r\n\r\ncontract DappToken {\r\n\r\n        // variable declaration\r\n        uint256 public totalSupply;\r\n        mapping (address => uint256) public balanceOf;\r\n\r\n        function DappToken(uint256 _initialSupply) public{\r\n            totalSupply = _initialSupply;\r\n        }\r\n\r\n        \r\n}\r\n",
  "sourcePath": "D:\\DApps\\token_sale\\contracts\\DappToken.sol",
  "compiler": {
    "name": "solc",
    "version": "0.4.24+commit.e67f0147.Emscripten.clang"
  },
  "schemaVersion": "2.0.1",
  "updatedAt": "2018-12-09T04:28:31.583Z"
}